:020000040000FA
:100000000C9463000C948B000C948B000C948B006C
:100010000C948B000C948B000C948B000C9461025C
:100020000C948B000C948B000C948B000C94BD02F0
:100030000C948B000C948B000C948B000C948B0014
:100040000C9417020C948B000C948B000C948B0076
:100050000C948B000C948B000C948B000C948B00F4
:100060000C948B000C948B000000000023002600F1
:1000700029000200000000240027002A00000000E0
:1000800000250028002B00040404040404040402D6
:100090000202020202030303030303010204081025
:1000A00020408001020408102001020408102000F2
:1000B0000000080002010000030407000000000027
:1000C00000000000530511241FBECFEFD8E0DEBFB3
:1000D000CDBF11E0A0E0B1E0E8E2FCE002C0059095
:1000E0000D92A230B107D9F721E0A2E0B1E001C042
:1000F0001D92A534B207E1F710E0C3E6D0E004C0DA
:100100002197FE010E940C06C236D107C9F70E9452
:1001100079030C9412060C940000CF92DF92EF92B8
:10012000FF92DC01A03282E0B807D4F5A53BB1050F
:1001300014F0A4EBB0E04091430128E830E0241B28
:10014000310947FD3395220F331F220F331F6901F9
:10015000330FEE08FF084091440128E532E0241BEC
:10016000310947FD3395220F331F220F331F032E12
:10017000000C440B550B2C193D094E095F09B7FFC4
:1001800002C0B0E0A0E00E94980524EB30E040E01F
:1001900050E00E946E05C20ED31EE41EF51ED6016D
:1001A000E0914201EC3080F52091430188E890E035
:1001B000821B910927FD9395880F991F880F991F1E
:1001C000A817B90784F02091440188E592E0821BCA
:1001D000910927FD9395880F991F880F991FA817DC
:1001E000B9070CF4CD010297880F991F4FB7F89407
:1001F0002E2F30E0F901EE0FFF1FE20FF31FE25E3A
:10020000FE4F928381834FBFFF90EF90DF90CF909E
:100210000895833081F028F4813099F08230A9F07C
:1002200008958730A9F08830C9F08430B1F4809106
:1002300080008F7D03C0809180008F778093800045
:10024000089584B58F7784BD089584B58F7DFBCFE5
:100250008091B0008F778093B00008958091B000B6
:100260008F7DF9CF1F93CF93DF93282F30E0F901D3
:10027000E155FF4F8491F901E556FF4FD491F90103
:10028000E957FF4FC491CC23A9F0162F81110E948A
:100290000901EC2FF0E0EE0FFF1FE358FF4FA5918F
:1002A000B4918FB7F894EC91111108C0D095DE236A
:1002B000DC938FBFDF91CF911F910895DE2BF8CF94
:1002C000CF93DF9390E0FC01E556FF4F24918957CF
:1002D0009F4FFC0184918823D1F090E0880F991FF3
:1002E000FC01ED58FF4FA591B491FC01E358FF4F7D
:1002F000C591D491623071F49FB7F8943C91822FEC
:10030000809583238C93E8812E2B28839FBFDF91D8
:10031000CF9108958FB7F894EC912E2B2C938FBF2B
:10032000F6CF3FB7F89480911A0190911B01A091EC
:100330001C01B0911D0126B5A89B05C02F3F19F0E7
:100340000196A11DB11D3FBFBA2FA92F982F882755
:10035000BC01CD01620F711D811D911D42E0660F30
:10036000771F881F991F4A95D1F708958F929F9202
:10037000AF92BF92CF92DF92EF92FF920E949101D3
:100380004B015C018FE0C82ED12CE12CF12C0E9496
:100390009101681979098A099B09683E73408105B2
:1003A0009105A8F321E0C21AD108E108F10888EE0E
:1003B000880E83E0981EA11CB11CC114D104E10475
:1003C000F10429F7FF90EF90DF90CF90BF90AF90AE
:1003D0009F908F9008959091000189130BC0E2E7E0
:1003E000F0E0E4919FEF90930001E13049F028F0B4
:1003F000E23061F060E00C94320110926E00FACFAE
:1004000090916F009D7F90936F00F4CF909170005A
:100410009D7F9093700091E09093B0009091B10017
:10042000987F94609093B1001092B300E3CF1F9235
:100430000F920FB60F9211242F933F938F939F9398
:10044000AF93BF938091160190911701A09118016D
:10045000B09119013091150123E0230F2D3758F584
:100460000196A11DB11D2093150180931601909353
:100470001701A0931801B093190180911A0190916E
:100480001B01A0911C01B0911D010196A11DB11D80
:1004900080931A0190931B01A0931C01B0931D013E
:1004A000BF91AF919F918F913F912F910F900FBE70
:1004B0000F901F90189526E8230F0296A11DB11DDD
:1004C000D2CF1F920F920FB60F9211242F933F930A
:1004D0004F935F936F937F938F939F93AF93BF934C
:1004E000EF93FF938091090190910A01A0910B0174
:1004F000B0910C01892B8A2B8B2BD1F190910401A7
:10050000E0910501F0910601808189278083809127
:10051000090190910A01A0910B01B0910C011816EC
:1005200019061A061B069CF48091090190910A0194
:10053000A0910B01B0910C010197A109B109809321
:10054000090190930A01A0930B01B0930C01FF9154
:10055000EF91BF91AF919F918F917F916F915F913B
:100560004F913F912F910F900FBE0F901F901895B4
:10057000809100010E94EB01EACF1F920F920FB60B
:100580000F9211242F933F934F935F936F937F9319
:100590008F939F93AF93BF93CF93DF93EF93FF938B
:1005A00080910301C0910201D0E087FF24C0109226
:1005B000850010928400809103018F5F8093030176
:1005C00080910301082E000C990B8C179D0724F4D1
:1005D000809103018C30C4F180918400909185005A
:1005E000049680349C4908F47AC0809184009091EC
:1005F0008500049676C080910301082E000C990BAB
:100600008C179D07C4F6E09103018E2FEE0F990B16
:10061000FC01EE0FFF1FE80FF91FE25EFE4F808125
:1006200086FFC9CFE09103018E2FEE0F990BFC01DD
:10063000EE0FFF1FE80FF91FE25EFE4F808160E0C2
:100640008F730E943201B7CF2091840030918500D2
:10065000E09103018E2FEE0F990BFC01EE0FFF1FAF
:10066000E80FF91FE25EFE4F81819281820F931F96
:100670009093890080938800E09103018E2FEE0F04
:10068000990BFC01EE0FFF1FE80FF91FE25EFE4F12
:10069000808186FF11C0E09103018E2FEE0F990B30
:1006A000FC01EE0FFF1FE80FF91FE25EFE4F808195
:1006B00061E08F730E943201FF91EF91DF91CF9142
:1006C000BF91AF919F918F917F916F915F914F916A
:1006D0003F912F910F900FBE0F901F90189580E4BF
:1006E0009CE990938900809388008FEF80930301A9
:1006F000E3CF789484B5826084BD84B5816084BD85
:1007000085B5826085BD85B5816085BD80916E00AF
:10071000816080936E0010928100809181008260E0
:10072000809381008091810081608093810080911D
:1007300080008160809380008091B100846080930C
:10074000B1008091B00081608093B00080917A0008
:10075000846080937A0080917A00826080937A002E
:1007600080917A00816080937A0080917A0080681D
:1007700080937A001092C10062E087E00E946001DD
:1007800061E08BE00E946001809142018C3008F0B2
:1007900051C061E089E00E94600180914201282FF0
:1007A00030E0F901EE0FFF1FE20FF31FE25EFE4F94
:1007B0009081907C99609083109243011092440143
:1007C0002CE0622F0E94D105829FB001112430E0FD
:1007D00020E0AB01420F531FFA01EE0FFF1FE40FA1
:1007E000F51FE25EFE4F908196FD16C02F5F3F4FD2
:1007F0002C30310571F781110FC01092800082E01A
:10080000809381001092850010928400B19A8091AB
:100810006F00826080936F00E09142018E2F90E024
:10082000FC01EE0FFF1FE80FF91FE25EFE4F808113
:100830008064808344244A9453E0552E612C712CAB
:1008400062E7262E60E0362E02E910E076EAE72E17
:1008500070E0F72E88248A94982C540140E0C42E2E
:1008600040E0D42E80E480937C0080917A00806404
:1008700080937A0080917A0086FDFCCFA091780069
:10088000B091790024EB30E00E94F105A3019201C0
:100890000E946E05C9010E948D00E6EBF0E0849194
:1008A000E2EAF0E0C491EEE8F0E0D491D1111EC08C
:1008B000809100018B3089F18F3F09F0D8C08BE027
:1008C00080930001F101C491CF3F09F4D0C0C13041
:1008D00009F460C008F446C0C23009F478C0C7FD0E
:1008E000C6C061E08BE00E94600122C081110E94BD
:1008F0000901ED2FF0E0EE0FFF1FE859FF4FA59122
:10090000B4918C91C823A1F20E94B601C114D10404
:1009100009F4A8CF0E940000A1CFF101C491C7FD46
:10092000A6C061E08BE00E946001CC2309F470C096
:10093000C23009F081C08091B100887F83608093CC
:10094000B10089EF8093B3008092090190920A016F
:10095000A0920B01B0920C01809170008260809394
:10096000700085C014BC15BC84B5826084BD85B59B
:10097000816085BDF8018491E82FF0E0EE0FFF1F44
:10098000E358FF4F85919491F7018491809308017A
:10099000C0E0C7CF1092800010928100809181004A
:1009A00088608093810080918100816080938100C4
:1009B000F8018491E82FF0E0EE0FFF1FE358FF4F9E
:1009C00085919491F701849180930701AACF1092A9
:1009D000B0001092B1008091B00082608093B000AE
:1009E0008091B10081608093B100F8018491E82F7B
:1009F000F0E0EE0FFF1FE358FF4F85919491909325
:100A0000060180930501F70184918093040189CF49
:100A100085B5887F836085BD8CE787BD8092110195
:100A200090921201A0921301B092140180916E0075
:100A3000826080936E001BC0C13069F58091810097
:100A4000887F8160809381008FE39FE1909389008C
:100A50008093880080920D0190920E01A0920F0168
:100A6000B092100180916F00826080936F00D0E09F
:100A7000C0E0CE0164EB70E00E94DD050E948D00B5
:100A80000E94B6012A96C83691E0D90791F78BE00B
:100A90000E94EB0139CFC23021F0C111E8CF8FE3C2
:100AA000BCCF8FE34FCF809102018C3098F491E05E
:100AB000980F909302018093420190E0FC01EE0FA9
:100AC000FF1FE80FF91FE25EFE4F88EB9BE0928369
:100AD000818308958FEF809342010895052E97FB3F
:100AE0001EF400940E94850557FD07D00E94A005C2
:100AF00007FC03D04EF40C94850550954095309535
:100B000021953F4F4F4F5F4F089590958095709579
:100B100061957F4F8F4F9F4F08950E94C205A59FFB
:100B2000900DB49F900DA49F800D911D11240895E8
:100B3000B7FF0C948D050E948D05821B930B0895C1
:100B4000A1E21A2EAA1BBB1BFD010DC0AA1FBB1FD1
:100B5000EE1FFF1FA217B307E407F50720F0A21B43
:100B6000B30BE40BF50B661F771F881F991F1A94B0
:100B700069F760957095809590959B01AC01BD01DA
:100B8000CF010895A29FB001B39FC001A39F700D34
:100B9000811D1124911DB29F700D811D1124911D85
:100BA0000895991B79E004C0991F961708F0961BC9
:100BB000881F7A95C9F78095089597FB072E16F43C
:100BC000009407D077FD09D00E94F80507FC05D0F6
:100BD0003EF4909581959F4F0895709561957F4F54
:100BE00008950E94C205B7FF0895821B930B0895D4
:100BF000AA1BBB1B51E107C0AA1FBB1FA617B70743
:100C000010F0A61BB70B881F991F5A95A9F780955E
:100C10009095BC01CD010895EE0FFF1F0590F49152
:0A0C2000E02D0994F894FFCFFF00C7
:107E0000112484B714BE81FFF0D085E080938100F7
:107E100082E08093C00088E18093C10086E0809377
:107E2000C20080E18093C4008EE0C9D0259A86E02C
:107E300020E33CEF91E0309385002093840096BBD3
:107E4000B09BFECF1D9AA8958150A9F7CC24DD24C4
:107E500088248394B5E0AB2EA1E19A2EF3E0BF2EE7
:107E6000A2D0813461F49FD0082FAFD0023811F036
:107E7000013811F484E001C083E08DD089C08234E0
:107E800011F484E103C0853419F485E0A6D080C0E4
:107E9000853579F488D0E82EFF2485D0082F10E0AE
:107EA000102F00270E291F29000F111F8ED06801E7
:107EB0006FC0863521F484E090D080E0DECF843638
:107EC00009F040C070D06FD0082F6DD080E0C81688
:107ED00080E7D80618F4F601B7BEE895C0E0D1E017
:107EE00062D089930C17E1F7F0E0CF16F0E7DF06D8
:107EF00018F0F601B7BEE89568D007B600FCFDCFD4
:107F0000A601A0E0B1E02C9130E011968C91119780
:107F100090E0982F8827822B932B1296FA010C0160
:107F200087BEE89511244E5F5F4FF1E0A038BF0790
:107F300051F7F601A7BEE89507B600FCFDCF97BE46
:107F4000E89526C08437B1F42ED02DD0F82E2BD052
:107F50003CD0F601EF2C8F010F5F1F4F84911BD097
:107F6000EA94F801C1F70894C11CD11CFA94CF0C13
:107F7000D11C0EC0853739F428D08EE10CD085E9AC
:107F80000AD08FE07ACF813511F488E018D01DD067
:107F900080E101D065CF982F8091C00085FFFCCF94
:107FA0009093C60008958091C00087FFFCCF809118
:107FB000C00084FD01C0A8958091C6000895E0E648
:107FC000F0E098E1908380830895EDDF803219F02E
:107FD00088E0F5DFFFCF84E1DECF1F93182FE3DFCA
:107FE0001150E9F7F2DF1F91089580E0E8DFEE27F6
:047FF000FF270994CA
:027FFE00040479
:00000001FF
